S01700004C414235202872657370616C646F292E737265633E
S11300000C9434000C9446000C9446000C94460066
S11300100C9446000C9446000C9446000C94460044
S11300200C9446000C9446000C9446000C94460034
S11300300C9446000C9446000C9446000C94460024
S11300400C9495000C9446000C9446000C944600C5
S11300500C9446000C94AF000C9446000C9446009B
S11300600C9446000C94460011241FBECFEFD8E038
S1130070DEBFCDBF21E0A0E0B1E001C01D92A13000
S1130080B207E1F70E946C000C94C8000C940000C5
S1130090ECE7F0E01082808180648083808180625C
S11300A08083808186608083EAE7F0E0108280812B
S11300B0886080838081876080838081806880837A
S11300C0089585B5856085BD8FEF86BDEEE6F0E0C9
S11300D08081816080830895F89484B1826084B9BA
S11300E0A0E8B0E01C92E1E8F0E010828C91806816
S11300F08C938C9181608C938081886080838081D3
S1130100856080830E9461000E94480078948091F9
S113011000019BEA899F812D11248695869590E0A4
S11301209093890080938800F2CF1F920F920FB6AC
S11301300F9211248F93EF93FF938FEF86BD85B3B6
S1130140816085BBEAE7F0E0808180648083FF9171
S1130150EF918F910F900FBE0F901F9018951F92E3
S11301600F920FB60F9211248F93EF93FF93809108
S1130170790080930001EAE7F0E080818061808368
S1130180FF91EF918F910F900FBE0F901F901895D4
S1070190F894FFCF0D
S9030000FC
